{
  "_format": "hh-sol-artifact-1",
  "contractName": "HonestClub1",
  "sourceName": "contracts/HonestClub1.sol",
  "abi": [
    {
      "inputs": [],
      "stateMutability": "nonpayable",
      "type": "constructor"
    },
    {
      "anonymous": false,
      "inputs": [
        {
          "indexed": false,
          "internalType": "string",
          "name": "name",
          "type": "string"
        },
        {
          "indexed": false,
          "internalType": "string",
          "name": "email",
          "type": "string"
        }
      ],
      "name": "MemberAdded",
      "type": "event"
    },
    {
      "anonymous": false,
      "inputs": [
        {
          "indexed": false,
          "internalType": "uint256",
          "name": "id",
          "type": "uint256"
        },
        {
          "indexed": false,
          "internalType": "uint8",
          "name": "newLevel",
          "type": "uint8"
        }
      ],
      "name": "MemberLevelAdjusted",
      "type": "event"
    },
    {
      "anonymous": false,
      "inputs": [
        {
          "indexed": false,
          "internalType": "uint256",
          "name": "id",
          "type": "uint256"
        }
      ],
      "name": "MemberRemoved",
      "type": "event"
    },
    {
      "anonymous": false,
      "inputs": [
        {
          "indexed": false,
          "internalType": "uint256",
          "name": "id",
          "type": "uint256"
        }
      ],
      "name": "MemberSignedIn",
      "type": "event"
    },
    {
      "inputs": [
        {
          "internalType": "string",
          "name": "name",
          "type": "string"
        },
        {
          "internalType": "string",
          "name": "email",
          "type": "string"
        }
      ],
      "name": "add_member",
      "outputs": [],
      "stateMutability": "nonpayable",
      "type": "function"
    },
    {
      "inputs": [
        {
          "internalType": "uint256",
          "name": "id",
          "type": "uint256"
        },
        {
          "internalType": "uint8",
          "name": "newLevel",
          "type": "uint8"
        }
      ],
      "name": "adjustLevel",
      "outputs": [],
      "stateMutability": "nonpayable",
      "type": "function"
    },
    {
      "inputs": [],
      "name": "clubMaster",
      "outputs": [
        {
          "internalType": "address",
          "name": "",
          "type": "address"
        }
      ],
      "stateMutability": "view",
      "type": "function"
    },
    {
      "inputs": [],
      "name": "how_many_members",
      "outputs": [
        {
          "internalType": "uint256",
          "name": "",
          "type": "uint256"
        }
      ],
      "stateMutability": "view",
      "type": "function"
    },
    {
      "inputs": [
        {
          "internalType": "uint256",
          "name": "",
          "type": "uint256"
        }
      ],
      "name": "members",
      "outputs": [
        {
          "internalType": "string",
          "name": "name",
          "type": "string"
        },
        {
          "internalType": "string",
          "name": "email",
          "type": "string"
        },
        {
          "internalType": "bool",
          "name": "signIn",
          "type": "bool"
        },
        {
          "internalType": "uint8",
          "name": "level",
          "type": "uint8"
        },
        {
          "internalType": "uint256",
          "name": "registerTime",
          "type": "uint256"
        }
      ],
      "stateMutability": "view",
      "type": "function"
    },
    {
      "inputs": [
        {
          "internalType": "uint256",
          "name": "id",
          "type": "uint256"
        }
      ],
      "name": "remove_member",
      "outputs": [],
      "stateMutability": "nonpayable",
      "type": "function"
    },
    {
      "inputs": [],
      "name": "resetSignIn",
      "outputs": [],
      "stateMutability": "nonpayable",
      "type": "function"
    },
    {
      "inputs": [
        {
          "internalType": "uint256",
          "name": "id",
          "type": "uint256"
        }
      ],
      "name": "signInMember",
      "outputs": [],
      "stateMutability": "nonpayable",
      "type": "function"
    }
  ],
  "bytecode": "0x6080604052348015600f57600080fd5b50336000806101000a81548173ffffffffffffffffffffffffffffffffffffffff021916908373ffffffffffffffffffffffffffffffffffffffff1602179055506117868061005f6000396000f3fe608060405234801561001057600080fd5b50600436106100885760003560e01c80639d69e9be1161005b5780639d69e9be14610117578063b393701d14610133578063c47f7fdd1461014f578063faf6efba1461015957610088565b80632b3e35971461008d5780635daf08ca146100a9578063886e4ad7146100dd5780639454fa76146100f9575b600080fd5b6100a760048036038101906100a29190610c56565b610177565b005b6100c360048036038101906100be9190610c96565b61030f565b6040516100d4959493929190610d8c565b60405180910390f35b6100f760048036038101906100f29190610c96565b61047f565b005b6101016106f0565b60405161010e9190610e2e565b60405180910390f35b610131600480360381019061012c9190610c96565b610714565b005b61014d60048036038101906101489190610f7e565b610898565b005b610157610a7d565b005b610161610b69565b60405161016e9190610ff6565b60405180910390f35b60008054906101000a900473ffffffffffffffffffffffffffffffffffffffff1673ffffffffffffffffffffffffffffffffffffffff163373ffffffffffffffffffffffffffffffffffffffff1614610205576040517f08c379a00000000000000000000000000000000000000000000000000000000081526004016101fc9061105d565b60405180910390fd5b81600180549050811061024d576040517f08c379a0000000000000000000000000000000000000000000000000000000008152600401610244906110c9565b60405180910390fd5b60008260ff1611610293576040517f08c379a000000000000000000000000000000000000000000000000000000000815260040161028a90611135565b60405180910390fd5b81600184815481106102a8576102a7611155565b5b906000526020600020906004020160020160016101000a81548160ff021916908360ff1602179055507fa8179ac32e28bb189d92342642934d1f8b6ad52565de8aa765f5cbb2be89151d8383604051610302929190611184565b60405180910390a1505050565b6001818154811061031f57600080fd5b9060005260206000209060040201600091509050806000018054610342906111dc565b80601f016020809104026020016040519081016040528092919081815260200182805461036e906111dc565b80156103bb5780601f10610390576101008083540402835291602001916103bb565b820191906000526020600020905b81548152906001019060200180831161039e57829003601f168201915b5050505050908060010180546103d0906111dc565b80601f01602080910402602001604051908101604052809291908181526020018280546103fc906111dc565b80156104495780601f1061041e57610100808354040283529160200191610449565b820191906000526020600020905b81548152906001019060200180831161042c57829003601f168201915b5050505050908060020160009054906101000a900460ff16908060020160019054906101000a900460ff16908060030154905085565b60008054906101000a900473ffffffffffffffffffffffffffffffffffffffff1673ffffffffffffffffffffffffffffffffffffffff163373ffffffffffffffffffffffffffffffffffffffff161461050d576040517f08c379a00000000000000000000000000000000000000000000000000000000081526004016105049061105d565b60405180910390fd5b806001805490508110610555576040517f08c379a000000000000000000000000000000000000000000000000000000000815260040161054c906110c9565b60405180910390fd5b6001808080549050610567919061123c565b8154811061057857610577611155565b5b90600052602060002090600402016001838154811061059a57610599611155565b5b9060005260206000209060040201600082018160000190816105bc9190611432565b50600182018160010190816105d19190611432565b506002820160009054906101000a900460ff168160020160006101000a81548160ff0219169083151502179055506002820160019054906101000a900460ff168160020160016101000a81548160ff021916908360ff16021790555060038201548160030155905050600180548061064c5761064b61151a565b5b6001900381819060005260206000209060040201600080820160006106719190610b76565b6001820160006106819190610b76565b6002820160006101000a81549060ff02191690556002820160016101000a81549060ff02191690556003820160009055505090557fd0d20500e9f6149da5ed17dba6eca3b2df42ed81471298973bd1d877a4cf152a826040516106e49190610ff6565b60405180910390a15050565b60008054906101000a900473ffffffffffffffffffffffffffffffffffffffff1681565b80600180549050811061075c576040517f08c379a0000000000000000000000000000000000000000000000000000000008152600401610753906110c9565b60405180910390fd5b60008054906101000a900473ffffffffffffffffffffffffffffffffffffffff1673ffffffffffffffffffffffffffffffffffffffff163373ffffffffffffffffffffffffffffffffffffffff1614806107e157503073ffffffffffffffffffffffffffffffffffffffff163373ffffffffffffffffffffffffffffffffffffffff16145b610820576040517f08c379a0000000000000000000000000000000000000000000000000000000008152600401610817906115bb565b60405180910390fd5b600180838154811061083557610834611155565b5b906000526020600020906004020160020160006101000a81548160ff0219169083151502179055507f7b4613905e7be6c71cbff8392d8545b6d9a2d2a60ce65fd1e081ff875b67fd5e8260405161088c9190610ff6565b60405180910390a15050565b60008054906101000a900473ffffffffffffffffffffffffffffffffffffffff1673ffffffffffffffffffffffffffffffffffffffff163373ffffffffffffffffffffffffffffffffffffffff1614610926576040517f08c379a000000000000000000000000000000000000000000000000000000000815260040161091d9061105d565b60405180910390fd5b60146001805490501061096e576040517f08c379a000000000000000000000000000000000000000000000000000000000815260040161096590611627565b60405180910390fd5b60016040518060a00160405280848152602001838152602001600015158152602001600160ff16815260200142815250908060018154018082558091505060019003906000526020600020906004020160009091909190915060008201518160000190816109dc9190611647565b5060208201518160010190816109f29190611647565b5060408201518160020160006101000a81548160ff02191690831515021790555060608201518160020160016101000a81548160ff021916908360ff1602179055506080820151816003015550507fea2ce14b4190416f360827324e7e4649ed1a75813da1d15589eabae56f94977c8282604051610a71929190611719565b60405180910390a15050565b60008054906101000a900473ffffffffffffffffffffffffffffffffffffffff1673ffffffffffffffffffffffffffffffffffffffff163373ffffffffffffffffffffffffffffffffffffffff1614610b0b576040517f08c379a0000000000000000000000000000000000000000000000000000000008152600401610b029061105d565b60405180910390fd5b60005b600180549050811015610b6657600060018281548110610b3157610b30611155565b5b906000526020600020906004020160020160006101000a81548160ff0219169083151502179055508080600101915050610b0e565b50565b6000600180549050905090565b508054610b82906111dc565b6000825580601f10610b945750610bb3565b601f016020900490600052602060002090810190610bb29190610bb6565b5b50565b5b80821115610bcf576000816000905550600101610bb7565b5090565b6000604051905090565b600080fd5b600080fd5b6000819050919050565b610bfa81610be7565b8114610c0557600080fd5b50565b600081359050610c1781610bf1565b92915050565b600060ff82169050919050565b610c3381610c1d565b8114610c3e57600080fd5b50565b600081359050610c5081610c2a565b92915050565b60008060408385031215610c6d57610c6c610bdd565b5b6000610c7b85828601610c08565b9250506020610c8c85828601610c41565b9150509250929050565b600060208284031215610cac57610cab610bdd565b5b6000610cba84828501610c08565b91505092915050565b600081519050919050565b600082825260208201905092915050565b60005b83811015610cfd578082015181840152602081019050610ce2565b60008484015250505050565b6000601f19601f8301169050919050565b6000610d2582610cc3565b610d2f8185610cce565b9350610d3f818560208601610cdf565b610d4881610d09565b840191505092915050565b60008115159050919050565b610d6881610d53565b82525050565b610d7781610c1d565b82525050565b610d8681610be7565b82525050565b600060a0820190508181036000830152610da68188610d1a565b90508181036020830152610dba8187610d1a565b9050610dc96040830186610d5f565b610dd66060830185610d6e565b610de36080830184610d7d565b9695505050505050565b600073ffffffffffffffffffffffffffffffffffffffff82169050919050565b6000610e1882610ded565b9050919050565b610e2881610e0d565b82525050565b6000602082019050610e436000830184610e1f565b92915050565b600080fd5b600080fd5b7f4e487b7100000000000000000000000000000000000000000000000000000000600052604160045260246000fd5b610e8b82610d09565b810181811067ffffffffffffffff82111715610eaa57610ea9610e53565b5b80604052505050565b6000610ebd610bd3565b9050610ec98282610e82565b919050565b600067ffffffffffffffff821115610ee957610ee8610e53565b5b610ef282610d09565b9050602081019050919050565b82818337600083830152505050565b6000610f21610f1c84610ece565b610eb3565b905082815260208101848484011115610f3d57610f3c610e4e565b5b610f48848285610eff565b509392505050565b600082601f830112610f6557610f64610e49565b5b8135610f75848260208601610f0e565b91505092915050565b60008060408385031215610f9557610f94610bdd565b5b600083013567ffffffffffffffff811115610fb357610fb2610be2565b5b610fbf85828601610f50565b925050602083013567ffffffffffffffff811115610fe057610fdf610be2565b5b610fec85828601610f50565b9150509250929050565b600060208201905061100b6000830184610d7d565b92915050565b7f53656e646572206973206e6f742074686520636c7562206d6173746572000000600082015250565b6000611047601d83610cce565b915061105282611011565b602082019050919050565b600060208201905081810360008301526110768161103a565b9050919050565b7f496e76616c6964206d656d626572206964000000000000000000000000000000600082015250565b60006110b3601183610cce565b91506110be8261107d565b602082019050919050565b600060208201905081810360008301526110e2816110a6565b9050919050565b7f4c6576656c206d7573742062652067726561746572207468616e207a65726f00600082015250565b600061111f601f83610cce565b915061112a826110e9565b602082019050919050565b6000602082019050818103600083015261114e81611112565b9050919050565b7f4e487b7100000000000000000000000000000000000000000000000000000000600052603260045260246000fd5b60006040820190506111996000830185610d7d565b6111a66020830184610d6e565b9392505050565b7f4e487b7100000000000000000000000000000000000000000000000000000000600052602260045260246000fd5b600060028204905060018216806111f457607f821691505b602082108103611207576112066111ad565b5b50919050565b7f4e487b7100000000000000000000000000000000000000000000000000000000600052601160045260246000fd5b600061124782610be7565b915061125283610be7565b925082820390508181111561126a5761126961120d565b5b92915050565b60008154905061127f816111dc565b9050919050565b60008190508160005260206000209050919050565b60006020601f8301049050919050565b600082821b905092915050565b6000600883026112e87fffffffffffffffffffffffffffffffffffffffffffffffffffffffffffffffff826112ab565b6112f286836112ab565b95508019841693508086168417925050509392505050565b6000819050919050565b600061132f61132a61132584610be7565b61130a565b610be7565b9050919050565b6000819050919050565b61134983611314565b61135d61135582611336565b8484546112b8565b825550505050565b600090565b611372611365565b61137d818484611340565b505050565b5b818110156113a15761139660008261136a565b600181019050611383565b5050565b601f8211156113e6576113b781611286565b6113c08461129b565b810160208510156113cf578190505b6113e36113db8561129b565b830182611382565b50505b505050565b600082821c905092915050565b6000611409600019846008026113eb565b1980831691505092915050565b600061142283836113f8565b9150826002028217905092915050565b818103611440575050611518565b61144982611270565b67ffffffffffffffff81111561146257611461610e53565b5b61146c82546111dc565b6114778282856113a5565b6000601f8311600181146114a65760008415611494578287015490505b61149e8582611416565b865550611511565b601f1984166114b487611286565b96506114bf86611286565b60005b828110156114e7578489015482556001820191506001850194506020810190506114c2565b868310156115045784890154611500601f8916826113f8565b8355505b6001600288020188555050505b5050505050505b565b7f4e487b7100000000000000000000000000000000000000000000000000000000600052603160045260246000fd5b7f4f6e6c7920636c7562206d6173746572206f7220746865206d656d626572206360008201527f616e207369676e20696e00000000000000000000000000000000000000000000602082015250565b60006115a5602a83610cce565b91506115b082611549565b604082019050919050565b600060208201905081810360008301526115d481611598565b9050919050565b7f4d656d626572206c696d69742072656163686564000000000000000000000000600082015250565b6000611611601483610cce565b915061161c826115db565b602082019050919050565b6000602082019050818103600083015261164081611604565b9050919050565b61165082610cc3565b67ffffffffffffffff81111561166957611668610e53565b5b61167382546111dc565b61167e8282856113a5565b600060209050601f8311600181146116b1576000841561169f578287015190505b6116a98582611416565b865550611711565b601f1984166116bf86611286565b60005b828110156116e7578489015182556001820191506020850194506020810190506116c2565b868310156117045784890151611700601f8916826113f8565b8355505b6001600288020188555050505b505050505050565b600060408201905081810360008301526117338185610d1a565b905081810360208301526117478184610d1a565b9050939250505056fea264697066735822122048ff25e107b60fdd6a6c3090e3faaf96986d27c0ce1e5fd242b4eaf10ec6c72564736f6c634300081a0033",
  "linkReferences": {},
  "deployedLinkReferences": {}
}